{
  "contractName": "stakingContract",
  "abi": [
    {
      "constant": true,
      "inputs": [],
      "name": "staketokenAdd",
      "outputs": [
        {
          "name": "",
          "type": "address"
        }
      ],
      "payable": false,
      "stateMutability": "view",
      "type": "function"
    },
    {
      "constant": true,
      "inputs": [],
      "name": "lptokenAdd",
      "outputs": [
        {
          "name": "",
          "type": "address"
        }
      ],
      "payable": false,
      "stateMutability": "view",
      "type": "function"
    },
    {
      "constant": true,
      "inputs": [],
      "name": "rewardtokenAdd",
      "outputs": [
        {
          "name": "",
          "type": "address"
        }
      ],
      "payable": false,
      "stateMutability": "view",
      "type": "function"
    },
    {
      "inputs": [
        {
          "name": "_StakeToken",
          "type": "address"
        },
        {
          "name": "_RewardToken",
          "type": "address"
        },
        {
          "name": "_LPToken",
          "type": "address"
        }
      ],
      "payable": false,
      "stateMutability": "nonpayable",
      "type": "constructor"
    },
    {
      "anonymous": false,
      "inputs": [
        {
          "indexed": false,
          "name": "",
          "type": "address"
        }
      ],
      "name": "Withdraw",
      "type": "event"
    },
    {
      "anonymous": false,
      "inputs": [
        {
          "indexed": false,
          "name": "",
          "type": "address"
        }
      ],
      "name": "Stake",
      "type": "event"
    },
    {
      "constant": true,
      "inputs": [],
      "name": "getStakeTokenBalofContract",
      "outputs": [
        {
          "name": "StakeTokenBal",
          "type": "uint256"
        }
      ],
      "payable": false,
      "stateMutability": "view",
      "type": "function"
    },
    {
      "constant": true,
      "inputs": [],
      "name": "getLPTokenBalofContract",
      "outputs": [
        {
          "name": "totalLPbal",
          "type": "uint256"
        }
      ],
      "payable": false,
      "stateMutability": "view",
      "type": "function"
    },
    {
      "constant": true,
      "inputs": [],
      "name": "getRewardTokenBalofContract",
      "outputs": [
        {
          "name": "RewardTokenBal",
          "type": "uint256"
        }
      ],
      "payable": false,
      "stateMutability": "view",
      "type": "function"
    },
    {
      "constant": true,
      "inputs": [],
      "name": "getStakedAmount",
      "outputs": [
        {
          "name": "",
          "type": "uint256"
        }
      ],
      "payable": false,
      "stateMutability": "view",
      "type": "function"
    },
    {
      "constant": false,
      "inputs": [
        {
          "name": "_StakingStarts",
          "type": "uint256"
        }
      ],
      "name": "TimeStakingOnContractStarts",
      "outputs": [],
      "payable": false,
      "stateMutability": "nonpayable",
      "type": "function"
    },
    {
      "constant": true,
      "inputs": [],
      "name": "getTimeStakingOnContractStarts",
      "outputs": [
        {
          "name": "",
          "type": "uint256"
        }
      ],
      "payable": false,
      "stateMutability": "view",
      "type": "function"
    },
    {
      "constant": true,
      "inputs": [],
      "name": "timeOfstaking",
      "outputs": [
        {
          "name": "timeOfStaking",
          "type": "uint256"
        }
      ],
      "payable": false,
      "stateMutability": "view",
      "type": "function"
    },
    {
      "constant": false,
      "inputs": [
        {
          "name": "_amountStaked",
          "type": "uint256"
        }
      ],
      "name": "stake",
      "outputs": [],
      "payable": false,
      "stateMutability": "nonpayable",
      "type": "function"
    },
    {
      "constant": false,
      "inputs": [
        {
          "name": "_withdrawalAmount",
          "type": "uint256"
        }
      ],
      "name": "withdrawAndReward",
      "outputs": [],
      "payable": false,
      "stateMutability": "nonpayable",
      "type": "function"
    }
  ],
  "bytecode": "0x608060405230600660006101000a81548173ffffffffffffffffffffffffffffffffffffffff021916908373ffffffffffffffffffffffffffffffffffffffff160217905550670de0b6b3a7640000600f5534801561005d57600080fd5b506040516060806110f6833981018060405281019080805190602001909291908051906020019092919080519060200190929190505050826000806101000a81548173ffffffffffffffffffffffffffffffffffffffff021916908373ffffffffffffffffffffffffffffffffffffffff16021790555081600260006101000a81548173ffffffffffffffffffffffffffffffffffffffff021916908373ffffffffffffffffffffffffffffffffffffffff16021790555080600160006101000a81548173ffffffffffffffffffffffffffffffffffffffff021916908373ffffffffffffffffffffffffffffffffffffffff160217905550505050610f8e806101686000396000f3006080604052600436106100b9576000357c0100000000000000000000000000000000000000000000000000000000900463ffffffff1680627a5c1a146100be5780632cadaccb146100e95780635a47b89114610114578063652a25511461013f5780636bd9ac331461016c5780639383ad42146101975780639d7172e2146101c2578063a4e15db914610219578063a694fc3a14610244578063c472295214610271578063c94c19b7146102c8578063f7785461146102f5575b600080fd5b3480156100ca57600080fd5b506100d361034c565b6040518082815260200191505060405180910390f35b3480156100f557600080fd5b506100fe61046c565b6040518082815260200191505060405180910390f35b34801561012057600080fd5b50610129610474565b6040518082815260200191505060405180910390f35b34801561014b57600080fd5b5061016a60048036038101908080359060200190929190505050610595565b005b34801561017857600080fd5b5061018161059f565b6040518082815260200191505060405180910390f35b3480156101a357600080fd5b506101ac6106c0565b6040518082815260200191505060405180910390f35b3480156101ce57600080fd5b506101d76106ca565b604051808273ffffffffffffffffffffffffffffffffffffffff1673ffffffffffffffffffffffffffffffffffffffff16815260200191505060405180910390f35b34801561022557600080fd5b5061022e6106ef565b6040518082815260200191505060405180910390f35b34801561025057600080fd5b5061026f600480360381019080803590602001909291905050506106f9565b005b34801561027d57600080fd5b506102866109ad565b604051808273ffffffffffffffffffffffffffffffffffffffff1673ffffffffffffffffffffffffffffffffffffffff16815260200191505060405180910390f35b3480156102d457600080fd5b506102f3600480360381019080803590602001909291905050506109d3565b005b34801561030157600080fd5b5061030a610f3c565b604051808273ffffffffffffffffffffffffffffffffffffffff1673ffffffffffffffffffffffffffffffffffffffff16815260200191505060405180910390f35b60008060009054906101000a900473ffffffffffffffffffffffffffffffffffffffff1673ffffffffffffffffffffffffffffffffffffffff166370a08231600660009054906101000a900473ffffffffffffffffffffffffffffffffffffffff166040518263ffffffff167c0100000000000000000000000000000000000000000000000000000000028152600401808273ffffffffffffffffffffffffffffffffffffffff1673ffffffffffffffffffffffffffffffffffffffff168152602001915050602060405180830381600087803b15801561042c57600080fd5b505af1158015610440573d6000803e3d6000fd5b505050506040513d602081101561045657600080fd5b8101908080519060200190929190505050905090565b600042905090565b6000600260009054906101000a900473ffffffffffffffffffffffffffffffffffffffff1673ffffffffffffffffffffffffffffffffffffffff166370a08231600660009054906101000a900473ffffffffffffffffffffffffffffffffffffffff166040518263ffffffff167c0100000000000000000000000000000000000000000000000000000000028152600401808273ffffffffffffffffffffffffffffffffffffffff1673ffffffffffffffffffffffffffffffffffffffff168152602001915050602060405180830381600087803b15801561055557600080fd5b505af1158015610569573d6000803e3d6000fd5b505050506040513d602081101561057f57600080fd5b8101908080519060200190929190505050905090565b80600a8190555050565b6000600160009054906101000a900473ffffffffffffffffffffffffffffffffffffffff1673ffffffffffffffffffffffffffffffffffffffff166370a08231600660009054906101000a900473ffffffffffffffffffffffffffffffffffffffff166040518263ffffffff167c0100000000000000000000000000000000000000000000000000000000028152600401808273ffffffffffffffffffffffffffffffffffffffff1673ffffffffffffffffffffffffffffffffffffffff168152602001915050602060405180830381600087803b15801561068057600080fd5b505af1158015610694573d6000803e3d6000fd5b505050506040513d60208110156106aa57600080fd5b8101908080519060200190929190505050905090565b6000600a54905090565b6000809054906101000a900473ffffffffffffffffffffffffffffffffffffffff1681565b6000600854905090565b806008819055506000809054906101000a900473ffffffffffffffffffffffffffffffffffffffff1673ffffffffffffffffffffffffffffffffffffffff166323b872dd33306008546040518463ffffffff167c0100000000000000000000000000000000000000000000000000000000028152600401808473ffffffffffffffffffffffffffffffffffffffff1673ffffffffffffffffffffffffffffffffffffffff1681526020018373ffffffffffffffffffffffffffffffffffffffff1673ffffffffffffffffffffffffffffffffffffffff1681526020018281526020019350505050602060405180830381600087803b1580156107fa57600080fd5b505af115801561080e573d6000803e3d6000fd5b505050506040513d602081101561082457600080fd5b810190808051906020019092919050505050600160009054906101000a900473ffffffffffffffffffffffffffffffffffffffff1673ffffffffffffffffffffffffffffffffffffffff1663a9059cbb336008546040518363ffffffff167c0100000000000000000000000000000000000000000000000000000000028152600401808373ffffffffffffffffffffffffffffffffffffffff1673ffffffffffffffffffffffffffffffffffffffff16815260200182815260200192505050602060405180830381600087803b1580156108fd57600080fd5b505af1158015610911573d6000803e3d6000fd5b505050506040513d602081101561092757600080fd5b81019080805190602001909291905050505061094161046c565b600b819055507f8c000936ed6cc8b0c4218956860faac1c834b4ec96b46fa995aa58fc097fea1633604051808273ffffffffffffffffffffffffffffffffffffffff1673ffffffffffffffffffffffffffffffffffffffff16815260200191505060405180910390a150565b600160009054906101000a900473ffffffffffffffffffffffffffffffffffffffff1681565b80600e81905550600160009054906101000a900473ffffffffffffffffffffffffffffffffffffffff1673ffffffffffffffffffffffffffffffffffffffff166370a08231336040518263ffffffff167c0100000000000000000000000000000000000000000000000000000000028152600401808273ffffffffffffffffffffffffffffffffffffffff1673ffffffffffffffffffffffffffffffffffffffff168152602001915050602060405180830381600087803b158015610a9757600080fd5b505af1158015610aab573d6000803e3d6000fd5b505050506040513d6020811015610ac157600080fd5b8101908080519060200190929190505050600e5411151515610b71576040517f08c379a000000000000000000000000000000000000000000000000000000000815260040180806020018281038252603b8152602001807f7769746864726177616c20616d6f756e7420746f6f206c617267652c206c617281526020017f676572207468616e20796f7572207374616b656420746f6b656e73000000000081525060400191505060405180910390fd5b600160009054906101000a900473ffffffffffffffffffffffffffffffffffffffff1673ffffffffffffffffffffffffffffffffffffffff166323b872dd3330600e546040518463ffffffff167c0100000000000000000000000000000000000000000000000000000000028152600401808473ffffffffffffffffffffffffffffffffffffffff1673ffffffffffffffffffffffffffffffffffffffff1681526020018373ffffffffffffffffffffffffffffffffffffffff1673ffffffffffffffffffffffffffffffffffffffff1681526020018281526020019350505050602060405180830381600087803b158015610c6c57600080fd5b505af1158015610c80573d6000803e3d6000fd5b505050506040513d6020811015610c9657600080fd5b8101908080519060200190929190505050506000809054906101000a900473ffffffffffffffffffffffffffffffffffffffff1673ffffffffffffffffffffffffffffffffffffffff1663a9059cbb33600e546040518363ffffffff167c0100000000000000000000000000000000000000000000000000000000028152600401808373ffffffffffffffffffffffffffffffffffffffff1673ffffffffffffffffffffffffffffffffffffffff16815260200182815260200192505050602060405180830381600087803b158015610d6e57600080fd5b505af1158015610d82573d6000803e3d6000fd5b505050506040513d6020811015610d9857600080fd5b81019080805190602001909291905050505042600c819055506064600e54811515610dbf57fe5b04600981905550600260009054906101000a900473ffffffffffffffffffffffffffffffffffffffff1673ffffffffffffffffffffffffffffffffffffffff1663a9059cbb336009546040518363ffffffff167c0100000000000000000000000000000000000000000000000000000000028152600401808373ffffffffffffffffffffffffffffffffffffffff1673ffffffffffffffffffffffffffffffffffffffff16815260200182815260200192505050602060405180830381600087803b158015610e8d57600080fd5b505af1158015610ea1573d6000803e3d6000fd5b505050506040513d6020811015610eb757600080fd5b810190808051906020019092919050505050600e5460085403600d819055507ff67611512e0a2d90c96fd3f08dca4971bc45fba9dc679eabe839a32abbe58a8e33604051808273ffffffffffffffffffffffffffffffffffffffff1673ffffffffffffffffffffffffffffffffffffffff16815260200191505060405180910390a150565b600260009054906101000a900473ffffffffffffffffffffffffffffffffffffffff16815600a165627a7a72305820735f0e99e660163553b7c584c12ef072b5bd3c68c06d6c4b4bbd717b82bd1c030029",
  "source": "pragma solidity^ 0.4.26;\r\n\r\nimport \"./IERC20.sol\";\r\n\r\n\r\ncontract stakingContract {\r\n    IERC20 public staketokenAdd;\r\n    IERC20 public lptokenAdd;\r\n    IERC20 public rewardtokenAdd;\r\n    uint StakeTokenBal;\r\n    uint totalLPbal;\r\n    uint RewardTokenBal;\r\n    address stakingContractAdd = address(this);\r\n    uint lptokenBalOfSender;\r\n    uint amountStaked;\r\n    uint interest;\r\n    uint StakingStarts; \r\n    uint timeOfStaking;\r\n    uint timeOfWithdrawal;\r\n    uint unclaimedTokens;\r\n    uint withdrawalAmount;\r\n    uint decimals = 10**18;\r\n    event Withdraw (address);\r\n    event Stake (address);\r\n\r\n    constructor(IERC20 _StakeToken, IERC20 _RewardToken, IERC20 _LPToken) public{\r\n\r\n        staketokenAdd =_StakeToken;\r\n        rewardtokenAdd = _RewardToken;\r\n        lptokenAdd = _LPToken;\r\n\r\n    }\r\n\r\n    function getStakeTokenBalofContract() public view returns(uint StakeTokenBal){\r\n        StakeTokenBal= staketokenAdd.balanceOf(stakingContractAdd);\r\n        \r\n    }\r\n    \r\n    function getLPTokenBalofContract() public view returns(uint totalLPbal){\r\n        totalLPbal = lptokenAdd.balanceOf(stakingContractAdd);\r\n    }\r\n    \r\n    \r\n    function getRewardTokenBalofContract() public view returns(uint RewardTokenBal){\r\n       RewardTokenBal = rewardtokenAdd.balanceOf(stakingContractAdd);\r\n    }\r\n    \r\n    \r\n    // call to get the amount staked\r\n    function getStakedAmount() public view returns(uint){\r\n        return amountStaked;\r\n    }\r\n    \r\n    // set the time staking starts\r\n    function TimeStakingOnContractStarts( uint _StakingStarts) public{\r\n        StakingStarts = _StakingStarts;\r\n    }\r\n    \r\n    // call function to get the set time staking started\r\n    function getTimeStakingOnContractStarts() public view returns(uint){\r\n        return StakingStarts;\r\n    }\r\n    \r\n    \r\n    function timeOfstaking() public view returns (uint timeOfStaking) {\r\n        timeOfStaking = now;\r\n    }\r\n     \r\n    function stake(uint _amountStaked) public {\r\n        \r\n        amountStaked = _amountStaked;\r\n        \r\n        // get the stake token bal of contract before receiving a stake\r\n        \r\n       \r\n        // transfer the stake token to the staking contract \r\n        staketokenAdd.transferFrom(msg.sender, address(this), amountStaked);\r\n        \r\n        //send lp tokens to the function caller. the lp tokens are evidence of amount of tokens staked.\r\n        lptokenAdd.transfer(msg.sender, amountStaked);\r\n\r\n        \r\n        //time tokens were staked  \r\n        timeOfStaking = stakingContract.timeOfstaking();\r\n\r\n        emit Stake(msg.sender);\r\n        \r\n\r\n    } \r\n    \r\n    \r\n    function withdrawAndReward( uint _withdrawalAmount) public{ \r\n         \r\n        withdrawalAmount = _withdrawalAmount;\r\n        \r\n        \r\n         //make sure lptokenBalOfSender is greater or le ss than the withdrawalAmount\r\n        require(withdrawalAmount <= lptokenAdd.balanceOf(msg.sender), 'withdrawal amount too large, larger than your staked tokens');\r\n        \r\n        \r\n        //transfer lptoken to the contract\r\n        \r\n        lptokenAdd.transferFrom(msg.sender, address(this), withdrawalAmount);\r\n        \r\n        // transfer staked tokens back to owner \r\n    \r\n        staketokenAdd.transfer(msg.sender, withdrawalAmount);\r\n        \r\n        //get the time withdrawal is initiated; \r\n        timeOfWithdrawal = now;\r\n        \r\n        // calculate interest to be paid as reward tokens\r\n        \r\n        \r\n        interest = withdrawalAmount/100;\r\n        \r\n        //transfer reward tokens to owner, they serve as interest on the Stake\r\n        \r\n        //tranfer reward token due to the caller \r\n        \r\n        \r\n        rewardtokenAdd.transfer(msg.sender, interest);\r\n        \r\n        // get the amount of tokens left unclaimed after Staking\r\n        \r\n        unclaimedTokens = amountStaked - withdrawalAmount;  \r\n        emit Withdraw(msg.sender);\r\n    }\r\n    \r\n      \r\n}",
  "sourcePath": "C:/Users/HP/Desktop/react-tutorial/staking-app/contracts/StakingContract.sol",
  "compiler": {
    "name": "solc",
    "version": "0.4.26+commit.4563c3fc.Emscripten.clang"
  },
  "schemaVersion": "3.3.1",
  "updatedAt": "2020-12-21T18:53:54.097Z",
  "networkType": "ethereum",
  "devdoc": {
    "methods": {}
  },
  "userdoc": {
    "methods": {}
  }
}